{
  "contractName": "EnjoyPassContract",
  "abi": [
    {
      "constant": true,
      "inputs": [],
      "name": "owner",
      "outputs": [
        {
          "name": "",
          "type": "address"
        }
      ],
      "payable": false,
      "stateMutability": "view",
      "type": "function"
    },
    {
      "constant": true,
      "inputs": [],
      "name": "root",
      "outputs": [
        {
          "name": "",
          "type": "address"
        }
      ],
      "payable": false,
      "stateMutability": "view",
      "type": "function"
    },
    {
      "inputs": [],
      "payable": false,
      "stateMutability": "nonpayable",
      "type": "constructor"
    },
    {
      "constant": false,
      "inputs": [
        {
          "name": "doctorAddress",
          "type": "address"
        }
      ],
      "name": "addDoctor",
      "outputs": [],
      "payable": false,
      "stateMutability": "nonpayable",
      "type": "function"
    },
    {
      "constant": false,
      "inputs": [
        {
          "name": "doctorAddress",
          "type": "address"
        }
      ],
      "name": "removeDoctor",
      "outputs": [],
      "payable": false,
      "stateMutability": "nonpayable",
      "type": "function"
    },
    {
      "constant": false,
      "inputs": [
        {
          "name": "rootAddress",
          "type": "address"
        }
      ],
      "name": "addRoot",
      "outputs": [],
      "payable": false,
      "stateMutability": "nonpayable",
      "type": "function"
    },
    {
      "constant": false,
      "inputs": [
        {
          "name": "identifier",
          "type": "uint256"
        }
      ],
      "name": "startDiesase",
      "outputs": [],
      "payable": false,
      "stateMutability": "nonpayable",
      "type": "function"
    },
    {
      "constant": false,
      "inputs": [
        {
          "name": "disease",
          "type": "uint256"
        },
        {
          "name": "user",
          "type": "address"
        },
        {
          "name": "validity",
          "type": "uint256"
        }
      ],
      "name": "addUserDiseaseFree",
      "outputs": [],
      "payable": false,
      "stateMutability": "nonpayable",
      "type": "function"
    },
    {
      "constant": true,
      "inputs": [
        {
          "name": "disease",
          "type": "uint256"
        },
        {
          "name": "user",
          "type": "address"
        }
      ],
      "name": "getUserStamp",
      "outputs": [
        {
          "name": "timestamp",
          "type": "uint256"
        }
      ],
      "payable": false,
      "stateMutability": "view",
      "type": "function"
    },
    {
      "constant": true,
      "inputs": [
        {
          "name": "disease",
          "type": "uint256"
        },
        {
          "name": "message",
          "type": "string"
        },
        {
          "name": "v",
          "type": "uint8"
        },
        {
          "name": "r",
          "type": "bytes32"
        },
        {
          "name": "s",
          "type": "bytes32"
        }
      ],
      "name": "checkUserValidity",
      "outputs": [
        {
          "name": "validity",
          "type": "bool"
        }
      ],
      "payable": false,
      "stateMutability": "view",
      "type": "function"
    },
    {
      "constant": true,
      "inputs": [
        {
          "name": "message",
          "type": "string"
        },
        {
          "name": "v",
          "type": "uint8"
        },
        {
          "name": "r",
          "type": "bytes32"
        },
        {
          "name": "s",
          "type": "bytes32"
        }
      ],
      "name": "verifyString",
      "outputs": [
        {
          "name": "signer",
          "type": "address"
        }
      ],
      "payable": false,
      "stateMutability": "pure",
      "type": "function"
    }
  ],
  "bytecode": "0x608060405234801561001057600080fd5b5033600160006101000a81548173ffffffffffffffffffffffffffffffffffffffff021916908373ffffffffffffffffffffffffffffffffffffffff160217905550610f63806100616000396000f3006080604052600436106100a4576000357c0100000000000000000000000000000000000000000000000000000000900463ffffffff168063359cfd72146100a9578063470b8990146100d65780634780468f1461012d5780635b90292e146101705780638da5cb5b146101d157806398fc90e914610228578063d10ff1e71461026b578063d2c3fbb71461031f578063da8bb7c7146103f1578063ebf0c71714610434575b600080fd5b3480156100b557600080fd5b506100d46004803603810190808035906020019092919050505061048b565b005b3480156100e257600080fd5b5061012b60048036038101908080359060200190929190803573ffffffffffffffffffffffffffffffffffffffff16906020019092919080359060200190929190505050610640565b005b34801561013957600080fd5b5061016e600480360381019080803573ffffffffffffffffffffffffffffffffffffffff16906020019092919050505061081c565b005b34801561017c57600080fd5b506101bb60048036038101908080359060200190929190803573ffffffffffffffffffffffffffffffffffffffff169060200190929190505050610961565b6040518082815260200191505060405180910390f35b3480156101dd57600080fd5b506101e66109bf565b604051808273ffffffffffffffffffffffffffffffffffffffff1673ffffffffffffffffffffffffffffffffffffffff16815260200191505060405180910390f35b34801561023457600080fd5b50610269600480360381019080803573ffffffffffffffffffffffffffffffffffffffff1690602001909291905050506109e5565b005b34801561027757600080fd5b5061030560048036038101908080359060200190929190803590602001908201803590602001908080601f0160208091040260200160405190810160405280939291908181526020018383808284378201915050505050509192919290803560ff16906020019092919080356000191690602001909291908035600019169060200190929190505050610b2a565b604051808215151515815260200191505060405180910390f35b34801561032b57600080fd5b506103af600480360381019080803590602001908201803590602001908080601f0160208091040260200160405190810160405280939291908181526020018383808284378201915050505050509192919290803560ff16906020019092919080356000191690602001909291908035600019169060200190929190505050610b9d565b604051808273ffffffffffffffffffffffffffffffffffffffff1673ffffffffffffffffffffffffffffffffffffffff16815260200191505060405180910390f35b3480156103fd57600080fd5b50610432600480360381019080803573ffffffffffffffffffffffffffffffffffffffff169060200190929190505050610de4565b005b34801561044057600080fd5b50610449610f12565b604051808273ffffffffffffffffffffffffffffffffffffffff1673ffffffffffffffffffffffffffffffffffffffff16815260200191505060405180910390f35b6000809054906101000a900473ffffffffffffffffffffffffffffffffffffffff1673ffffffffffffffffffffffffffffffffffffffff163373ffffffffffffffffffffffffffffffffffffffff16141515610575576040517f08c379a00000000000000000000000000000000000000000000000000000000081526004018080602001828103825260218152602001807f4f6e6c7920726f6f742063616e20706572666f726d207468697320616374696f81526020017f6e0000000000000000000000000000000000000000000000000000000000000081525060400191505060405180910390fd5b6003600082815260200190815260200160002060000160009054906101000a900460ff1615151561060e576040517f08c379a00000000000000000000000000000000000000000000000000000000081526004018080602001828103825260188152602001807f546869732064697365617365732069732063726561746564000000000000000081525060200191505060405180910390fd5b60016003600083815260200190815260200160002060000160006101000a81548160ff02191690831515021790555050565b600260003373ffffffffffffffffffffffffffffffffffffffff1673ffffffffffffffffffffffffffffffffffffffff16815260200190815260200160002060009054906101000a900460ff161515610727576040517f08c379a00000000000000000000000000000000000000000000000000000000081526004018080602001828103825260218152602001807f4f6e6c7920726f6f742063616e20706572666f726d207468697320616374696f81526020017f6e0000000000000000000000000000000000000000000000000000000000000081525060400191505060405180910390fd5b6003600084815260200190815260200160002060000160009054906101000a900460ff1615156107bf576040517f08c379a00000000000000000000000000000000000000000000000000000000081526004018080602001828103825260178152602001807f54686973206469736561736520646f6e7420657869737400000000000000000081525060200191505060405180910390fd5b806003600085815260200190815260200160002060010160008473ffffffffffffffffffffffffffffffffffffffff1673ffffffffffffffffffffffffffffffffffffffff16815260200190815260200160002081905550505050565b6000809054906101000a900473ffffffffffffffffffffffffffffffffffffffff1673ffffffffffffffffffffffffffffffffffffffff163373ffffffffffffffffffffffffffffffffffffffff16141515610906576040517f08c379a00000000000000000000000000000000000000000000000000000000081526004018080602001828103825260218152602001807f4f6e6c7920726f6f742063616e20706572666f726d207468697320616374696f81526020017f6e0000000000000000000000000000000000000000000000000000000000000081525060400191505060405180910390fd5b6001600260008373ffffffffffffffffffffffffffffffffffffffff1673ffffffffffffffffffffffffffffffffffffffff16815260200190815260200160002060006101000a81548160ff02191690831515021790555050565b60006003600084815260200190815260200160002060010160008373ffffffffffffffffffffffffffffffffffffffff1673ffffffffffffffffffffffffffffffffffffffff16815260200190815260200160002054905092915050565b600160009054906101000a900473ffffffffffffffffffffffffffffffffffffffff1681565b6000809054906101000a900473ffffffffffffffffffffffffffffffffffffffff1673ffffffffffffffffffffffffffffffffffffffff163373ffffffffffffffffffffffffffffffffffffffff16141515610acf576040517f08c379a00000000000000000000000000000000000000000000000000000000081526004018080602001828103825260218152602001807f4f6e6c7920726f6f742063616e20706572666f726d207468697320616374696f81526020017f6e0000000000000000000000000000000000000000000000000000000000000081525060400191505060405180910390fd5b6000600260008373ffffffffffffffffffffffffffffffffffffffff1673ffffffffffffffffffffffffffffffffffffffff16815260200190815260200160002060006101000a81548160ff02191690831515021790555050565b600080610b3986868686610b9d565b9050426003600089815260200190815260200160002060010160008373ffffffffffffffffffffffffffffffffffffffff1673ffffffffffffffffffffffffffffffffffffffff168152602001908152602001600020541191505095945050505050565b600060606000806000806000806040805190810160405280602081526020017f19457468657265756d205369676e6564204d6573736167653a0a30303030303081525096508b519450603987019550620f423f8511151515610bfe57600080fd5b60009350620186a092505b600083141515610c7c578285811515610c1e57fe5b0491506000821415610c48576000841415610c4757600a83811515610c3f57fe5b049250610c09565b5b838060010194505082820285039450600a83811515610c6357fe5b0492506030820191508580600101965050818653610c09565b6000841415610c8e57601b9350610c95565b601a840193505b838752868c6040518083805190602001908083835b602083101515610ccf5780518252602082019150602081019050602083039250610caa565b6001836020036101000a03801982511681845116808217855250505050505090500182805190602001908083835b602083101515610d225780518252602082019150602081019050602083039250610cfd565b6001836020036101000a03801982511681845116808217855250505050505090500192505050604051809103902090506001818c8c8c604051600081526020016040526040518085600019166000191681526020018460ff1660ff1681526020018360001916600019168152602001826000191660001916815260200194505050505060206040516020810390808403906000865af1158015610dc9573d6000803e3d6000fd5b50505060206040510351975050505050505050949350505050565b600160009054906101000a900473ffffffffffffffffffffffffffffffffffffffff1673ffffffffffffffffffffffffffffffffffffffff163373ffffffffffffffffffffffffffffffffffffffff16141515610ecf576040517f08c379a00000000000000000000000000000000000000000000000000000000081526004018080602001828103825260228152602001807f4f6e6c79206f776e65722063616e20706572666f726d2074686973206163746981526020017f6f6e00000000000000000000000000000000000000000000000000000000000081525060400191505060405180910390fd5b806000806101000a81548173ffffffffffffffffffffffffffffffffffffffff021916908373ffffffffffffffffffffffffffffffffffffffff16021790555050565b6000809054906101000a900473ffffffffffffffffffffffffffffffffffffffff16815600a165627a7a7230582038b8cf907c07d1f808de02ce55dd15650106aee8eff1053f19e312a663c413130029",
  "source": "pragma solidity < 0.6.0;\n\n\ncontract EnjoyPassContract {\n    address public root;\n    address public owner;\n    \n    struct Disease {\n        bool created;\n        mapping (address => uint) users;\n    }\n    \n    mapping(address => bool) doctors;\n\n    mapping(uint => Disease) diseases;\n\n    constructor() public {\n        owner = msg.sender;\n    }\n\n    modifier onlyOwner {\n        require(msg.sender == owner, 'Only owner can perform this action');\n        _;\n    }\n\n    modifier onlyRoot {\n        require(msg.sender == root, 'Only root can perform this action');\n        _;\n    }\n\n    modifier onlyDoctor {\n        require(doctors[msg.sender], 'Only root can perform this action');\n        _;\n    }\n\n    function addDoctor(address doctorAddress) public onlyRoot {\n        doctors[doctorAddress] = true;\n    }\n    \n    function removeDoctor(address doctorAddress) public onlyRoot {\n        doctors[doctorAddress] = false;\n    }\n    \n    function addRoot(address rootAddress) public onlyOwner {\n        root = rootAddress;\n    }\n\n    function startDiesase(uint identifier) public onlyRoot {\n        require(!diseases[identifier].created, 'This diseases is created');\n        \n        diseases[identifier].created = true;\n    }\n    \n    function addUserDiseaseFree(uint disease, address user, uint validity) public onlyDoctor {\n        require(diseases[disease].created, 'This disease dont exist');\n        \n        diseases[disease].users[user] = validity;\n    }\n    \n    function getUserStamp(uint disease, address user) public view returns (uint timestamp) {\n        return diseases[disease].users[user];\n    }\n\n    function checkUserValidity(\n        uint disease,\n        string memory message, \n        uint8 v, \n        bytes32 r, \n        bytes32 s\n    ) public view returns (bool validity) {\n        address user = verifyString(message, v, r, s);\n        \n        return diseases[disease].users[user] > now;\n    }\n    \n    function verifyString(\n        string memory message,\n        uint8 v, \n        bytes32 r, \n        bytes32 s\n    ) public pure returns (address signer) {\n        string memory header = \"\\x19Ethereum Signed Message:\\n000000\";\n\n        uint256 lengthOffset;\n        uint256 length;\n        assembly {\n            // The first word of a string is its length\n            length := mload(message)\n            // The beginning of the base-10 message length in the prefix\n            lengthOffset := add(header, 57)\n        }\n\n        // Maximum length we support\n        require(length <= 999999);\n\n        // The length of the message's length in base-10\n        uint256 lengthLength = 0;\n\n        // The divisor to get the next left-most message length digit\n        uint256 divisor = 100000;\n\n        // Move one digit of the message length to the right at a time\n        while (divisor != 0) {\n\n            // The place value at the divisor\n            uint256 digit = length / divisor;\n            if (digit == 0) {\n                // Skip leading zeros\n                if (lengthLength == 0) {\n                    divisor /= 10;\n                    continue;\n                }\n            }\n\n            // Found a non-zero digit or non-leading zero digit\n            lengthLength++;\n\n            // Remove this digit from the message length's current value\n            length -= digit * divisor;\n\n            // Shift our base-10 divisor over\n            divisor /= 10;\n\n            // Convert the digit to its ASCII representation (man ascii)\n            digit += 0x30;\n            // Move to the next character and write the digit\n            lengthOffset++;\n\n            assembly {\n                mstore8(lengthOffset, digit)\n            }\n        }\n\n        // The null string requires exactly 1 zero (unskip 1 leading 0)\n        if (lengthLength == 0) {\n            lengthLength = 1 + 0x19 + 1;\n        } else {\n            lengthLength += 1 + 0x19;\n        }\n\n        // Truncate the tailing zeros from the header\n        assembly {\n            mstore(header, lengthLength)\n        }\n\n        // Perform the elliptic curve recover operation\n        bytes32 check = keccak256(header, message);\n\n        return ecrecover(check, v, r, s);\n    }\n}\n",
  "sourcePath": "/Users/alex/workspace/EnjoyPass/blockchain/contracts/EnjoyPassContract.sol",
  "compiler": {
    "name": "solc",
    "version": "0.4.23+commit.124ca40d.Emscripten.clang"
  },
  "schemaVersion": "3.0.13",
  "updatedAt": "2020-04-12T00:32:59.302Z",
  "devdoc": {
    "methods": {}
  },
  "userdoc": {
    "methods": {}
  }
}