{
  "contractName": "EnjoyPassContract",
  "abi": [
    {
      "constant": true,
      "inputs": [],
      "name": "owner",
      "outputs": [
        {
          "name": "",
          "type": "address"
        }
      ],
      "payable": false,
      "stateMutability": "view",
      "type": "function"
    },
    {
      "constant": true,
      "inputs": [],
      "name": "root",
      "outputs": [
        {
          "name": "",
          "type": "address"
        }
      ],
      "payable": false,
      "stateMutability": "view",
      "type": "function"
    },
    {
      "inputs": [],
      "payable": false,
      "stateMutability": "nonpayable",
      "type": "constructor"
    },
    {
      "constant": false,
      "inputs": [
        {
          "name": "doctorAddress",
          "type": "address"
        }
      ],
      "name": "addDoctor",
      "outputs": [],
      "payable": false,
      "stateMutability": "nonpayable",
      "type": "function"
    },
    {
      "constant": false,
      "inputs": [
        {
          "name": "doctorAddress",
          "type": "address"
        }
      ],
      "name": "removeDoctor",
      "outputs": [],
      "payable": false,
      "stateMutability": "nonpayable",
      "type": "function"
    },
    {
      "constant": false,
      "inputs": [
        {
          "name": "rootAddress",
          "type": "address"
        }
      ],
      "name": "addRoot",
      "outputs": [],
      "payable": false,
      "stateMutability": "nonpayable",
      "type": "function"
    },
    {
      "constant": false,
      "inputs": [
        {
          "name": "identifier",
          "type": "uint256"
        }
      ],
      "name": "startDiesase",
      "outputs": [],
      "payable": false,
      "stateMutability": "nonpayable",
      "type": "function"
    },
    {
      "constant": false,
      "inputs": [
        {
          "name": "disease",
          "type": "uint256"
        },
        {
          "name": "user",
          "type": "address"
        },
        {
          "name": "validity",
          "type": "uint256"
        }
      ],
      "name": "addUserDiseaseFree",
      "outputs": [],
      "payable": false,
      "stateMutability": "nonpayable",
      "type": "function"
    },
    {
      "constant": true,
      "inputs": [
        {
          "name": "disease",
          "type": "uint256"
        },
        {
          "name": "user",
          "type": "address"
        }
      ],
      "name": "checkUser",
      "outputs": [
        {
          "name": "validity",
          "type": "bool"
        }
      ],
      "payable": false,
      "stateMutability": "view",
      "type": "function"
    },
    {
      "constant": true,
      "inputs": [
        {
          "name": "disease",
          "type": "uint256"
        },
        {
          "name": "user",
          "type": "address"
        }
      ],
      "name": "getUserValidity",
      "outputs": [
        {
          "name": "timestamp",
          "type": "uint256"
        }
      ],
      "payable": false,
      "stateMutability": "view",
      "type": "function"
    }
  ],
  "bytecode": "0x608060405234801561001057600080fd5b5033600160006101000a81548173ffffffffffffffffffffffffffffffffffffffff021916908373ffffffffffffffffffffffffffffffffffffffff160217905550610aaa806100616000396000f3fe608060405234801561001057600080fd5b50600436106100935760003560e01c80634780468f116100665780634780468f146101e65780638da5cb5b1461022a57806398fc90e914610274578063da8bb7c7146102b8578063ebf0c717146102fc57610093565b8063284ee9bf14610098578063359cfd72146100fa5780634111212614610128578063470b89901461018e575b600080fd5b6100e4600480360360408110156100ae57600080fd5b8101908080359060200190929190803573ffffffffffffffffffffffffffffffffffffffff169060200190929190505050610346565b6040518082815260200191505060405180910390f35b6101266004803603602081101561011057600080fd5b81019080803590602001909291905050506103a4565b005b6101746004803603604081101561013e57600080fd5b8101908080359060200190929190803573ffffffffffffffffffffffffffffffffffffffff169060200190929190505050610512565b604051808215151515815260200191505060405180910390f35b6101e4600480360360608110156101a457600080fd5b8101908080359060200190929190803573ffffffffffffffffffffffffffffffffffffffff16906020019092919080359060200190929190505050610572565b005b610228600480360360208110156101fc57600080fd5b81019080803573ffffffffffffffffffffffffffffffffffffffff169060200190929190505050610707565b005b610232610807565b604051808273ffffffffffffffffffffffffffffffffffffffff1673ffffffffffffffffffffffffffffffffffffffff16815260200191505060405180910390f35b6102b66004803603602081101561028a57600080fd5b81019080803573ffffffffffffffffffffffffffffffffffffffff16906020019092919050505061082d565b005b6102fa600480360360208110156102ce57600080fd5b81019080803573ffffffffffffffffffffffffffffffffffffffff16906020019092919050505061092d565b005b610304610a16565b604051808273ffffffffffffffffffffffffffffffffffffffff1673ffffffffffffffffffffffffffffffffffffffff16815260200191505060405180910390f35b60006003600084815260200190815260200160002060010160008373ffffffffffffffffffffffffffffffffffffffff1673ffffffffffffffffffffffffffffffffffffffff16815260200190815260200160002054905092915050565b6000809054906101000a900473ffffffffffffffffffffffffffffffffffffffff1673ffffffffffffffffffffffffffffffffffffffff163373ffffffffffffffffffffffffffffffffffffffff1614610449576040517f08c379a0000000000000000000000000000000000000000000000000000000008152600401808060200182810382526021815260200180610a3c6021913960400191505060405180910390fd5b6003600082815260200190815260200160002060000160009054906101000a900460ff16156104e0576040517f08c379a00000000000000000000000000000000000000000000000000000000081526004018080602001828103825260188152602001807f546869732064697365617365732069732063726561746564000000000000000081525060200191505060405180910390fd5b60016003600083815260200190815260200160002060000160006101000a81548160ff02191690831515021790555050565b6000426003600085815260200190815260200160002060010160008473ffffffffffffffffffffffffffffffffffffffff1673ffffffffffffffffffffffffffffffffffffffff1681526020019081526020016000205411905092915050565b600260003373ffffffffffffffffffffffffffffffffffffffff1673ffffffffffffffffffffffffffffffffffffffff16815260200190815260200160002060009054906101000a900460ff16610614576040517f08c379a0000000000000000000000000000000000000000000000000000000008152600401808060200182810382526021815260200180610a3c6021913960400191505060405180910390fd5b6003600084815260200190815260200160002060000160009054906101000a900460ff166106aa576040517f08c379a00000000000000000000000000000000000000000000000000000000081526004018080602001828103825260178152602001807f54686973206469736561736520646f6e7420657869737400000000000000000081525060200191505060405180910390fd5b806003600085815260200190815260200160002060010160008473ffffffffffffffffffffffffffffffffffffffff1673ffffffffffffffffffffffffffffffffffffffff16815260200190815260200160002081905550505050565b6000809054906101000a900473ffffffffffffffffffffffffffffffffffffffff1673ffffffffffffffffffffffffffffffffffffffff163373ffffffffffffffffffffffffffffffffffffffff16146107ac576040517f08c379a0000000000000000000000000000000000000000000000000000000008152600401808060200182810382526021815260200180610a3c6021913960400191505060405180910390fd5b6001600260008373ffffffffffffffffffffffffffffffffffffffff1673ffffffffffffffffffffffffffffffffffffffff16815260200190815260200160002060006101000a81548160ff02191690831515021790555050565b600160009054906101000a900473ffffffffffffffffffffffffffffffffffffffff1681565b6000809054906101000a900473ffffffffffffffffffffffffffffffffffffffff1673ffffffffffffffffffffffffffffffffffffffff163373ffffffffffffffffffffffffffffffffffffffff16146108d2576040517f08c379a0000000000000000000000000000000000000000000000000000000008152600401808060200182810382526021815260200180610a3c6021913960400191505060405180910390fd5b6000600260008373ffffffffffffffffffffffffffffffffffffffff1673ffffffffffffffffffffffffffffffffffffffff16815260200190815260200160002060006101000a81548160ff02191690831515021790555050565b600160009054906101000a900473ffffffffffffffffffffffffffffffffffffffff1673ffffffffffffffffffffffffffffffffffffffff163373ffffffffffffffffffffffffffffffffffffffff16146109d3576040517f08c379a0000000000000000000000000000000000000000000000000000000008152600401808060200182810382526022815260200180610a5d6022913960400191505060405180910390fd5b806000806101000a81548173ffffffffffffffffffffffffffffffffffffffff021916908373ffffffffffffffffffffffffffffffffffffffff16021790555050565b6000809054906101000a900473ffffffffffffffffffffffffffffffffffffffff168156fe4f6e6c7920726f6f742063616e20706572666f726d207468697320616374696f6e4f6e6c79206f776e65722063616e20706572666f726d207468697320616374696f6ea165627a7a72305820b0d29c8fea11c1fccde952a9e3affaa6e21ee23c592bc29f2621255ae4f7751e0029",
  "source": "pragma solidity < 0.6.0;\n\n\ncontract EnjoyPassContract {\n    address public root;\n    address public owner;\n    \n    struct Disease {\n        bool created;\n        mapping (address => uint) users;\n    }\n    \n    mapping(address => bool) doctors;\n\n    mapping(uint => Disease) diseases;\n\n    constructor() public {\n        owner = msg.sender;\n    }\n\n    modifier onlyOwner {\n        require(msg.sender == owner, 'Only owner can perform this action');\n        _;\n    }\n\n    modifier onlyRoot {\n        require(msg.sender == root, 'Only root can perform this action');\n        _;\n    }\n\n    modifier onlyDoctor {\n        require(doctors[msg.sender], 'Only root can perform this action');\n        _;\n    }\n\n    function addDoctor(address doctorAddress) public onlyRoot {\n        doctors[doctorAddress] = true;\n    }\n    \n    function removeDoctor(address doctorAddress) public onlyRoot {\n        doctors[doctorAddress] = false;\n    }\n    \n    function addRoot(address rootAddress) public onlyOwner {\n        root = rootAddress;\n    }\n\n    function startDiesase(uint identifier) public onlyRoot {\n        require(!diseases[identifier].created, 'This diseases is created');\n        \n        diseases[identifier].created = true;\n    }\n    \n    function addUserDiseaseFree(uint disease, address user, uint validity) public onlyDoctor {\n        require(diseases[disease].created, 'This disease dont exist');\n        \n        diseases[disease].users[user] = validity;\n    }\n    \n    function checkUser(uint disease, address user) public view returns (bool validity) {\n        return diseases[disease].users[user] > now;\n    }\n\n    function getUserValidity(uint disease, address user) public view returns (uint timestamp) {\n        return diseases[disease].users[user];\n    }\n}\n",
  "sourcePath": "/Users/alex/workspace/EnjoyPass/blockchain/contracts/EnjoyPassContract.sol",
  "compiler": {
    "name": "solc",
    "version": "0.5.8+commit.23d335f2.Emscripten.clang"
  },
  "schemaVersion": "3.0.13",
  "updatedAt": "2020-04-10T15:38:10.749Z",
  "devdoc": {
    "methods": {}
  },
  "userdoc": {
    "methods": {}
  }
}